:020000040800F2
:1000000070060020CD010008830B00081D0B0008BE
:10001000810B0008EF020008D50B0008000000006B
:10002000000000000000000000000000870B000836
:10003000F102000800000000850B0008890B000891
:10004000E7010008E7010008E7010008E7010008F0
:10005000E7010008E7010008E7010008E7010008E0
:10006000E7010008E7010008E7010008E7010008D0
:10007000E7010008E7010008E7010008E7010008C0
:10008000E7010008E7010008E7010008E7010008B0
:10009000E7010008E7010008E7010008E7010008A0
:1000A000E7010008E7010008E7010008E701000890
:1000B000E7010008E7010008E7010008E701000880
:1000C000E7010008E7010008E7010008E701000870
:1000D000E7010008E7010008E7010008E701000860
:1000E000E7010008E7010008E7010008E701000850
:1000F000E7010008E7010008E7010008E701000840
:10010000E7010008E7010008E7010008E70100082F
:10011000E7010008E7010008E7010008E70100081F
:10012000E7010008E7010008E7010008E70100080F
:1001300000F002F800F03AF80AA090E8000C8244BF
:100140008344AAF10107DA4501D100F02FF8AFF29C
:10015000090EBAE80F0013F0010F18BFFB1A43F0A5
:10016000010318471813000038130000103A24BF89
:1001700078C878C1FAD8520724BF30C830C144BF0C
:1001800004680C607047000000230024002500264E
:10019000103A28BF78C1FBD8520728BF30C148BFEA
:1001A0000B6070471FB51FBD10B510BD00F06CF897
:1001B0001146FFF7F7FF00F065FD00F08AF803B481
:1001C000FFF7F2FF03BC00F08BF8000009488047FE
:1001D00009480047FEE7FEE7FEE7FEE7FEE7FEE729
:1001E000FEE7FEE7FEE7FEE704480549054A064B41
:1001F000704700008D0B00083101000870000020DE
:100200007006002070020020700200204FF00002F3
:1002100000B5134694469646203922BFA0E80C50FC
:10022000A0E80C50B1F12001BFF4F7AF090728BFD7
:10023000A0E80C5048BF0CC05DF804EB890028BF53
:1002400040F8042B08BF704748BF20F8022B11F07C
:10025000804F18BF00F8012B7047704770477047F8
:1002600010B500F009F8006810BD10B5044600F0A4
:1002700003F8046010BD0000004870471000002023
:1002800000487047100000207546FFF7F9FFAE46A2
:1002900005006946534620F00700854618B020B592
:1002A000FFF7A2FFBDE820404FF000064FF0000727
:1002B0004FF000084FF0000B21F00701AC46ACE80E
:1002C000C009ACE8C009ACE8C009ACE8C0098D467B
:1002D00070470446AFF300802046FFF770FF000030
:1002E00001491820ABBEFEE7260002007047FEE77A
:1002F0007047000070B5044600F010F90546601C18
:1003000002D004480078044400F008F9401BA042E1
:10031000FAD370BD000000202DE9F84FDFF8C89136
:10032000002409F1040A0AF1040B23460F270BF1FC
:10033000040ED1E00125A54006EA0502AA4276D1C5
:10034000DFF8A8C14E68A6EB0C0866452BD00DDC83
:10035000032E34D005DC36B3012E19D0022E2FD156
:100360001BE0112E16D0122E2AD119E0B8F5881FE5
:1003700019D006DCB8F5803F15D0B8F5801F1FD125
:1003800011E0B8F5001F0ED0B8F5041F18D10AE02F
:10039000CB6815E0CB681B1D12E0CB6808330FE07B
:1003A000CB680C330CE08B682BB1012B4FF00803AA
:1003B00003D0456104E0042302E0056100E000236E
:1003C000FF2A01D8064601E000F104064FEA840541
:1003D00001D9A5F12005D6F8008007FA05FC28EA26
:1003E0000C0803FA05F548EA0508C6F800804D68D0
:1003F000ED0070D53E4DAE6946F00106AE61AD69C7
:1004000024F0030605F0010500953A4D06EB050CB6
:10041000DCF80850A607360F07FA06F825EA0805A3
:10042000DFF8D480404503D14FF0000825E052E0CA
:10043000DFF8C880404502D14FF001081DE0DFF829
:10044000C080404502D14FF0020816E0DFF8B480CA
:10045000404502D14FF003080FE0DFF8AC80404583
:1004600002D14FF0040808E0DFF8A080404502D137
:100470004FF0050801E04FF0060808FA06F848EAD0
:100480000508CCF808804D68D9F80060ED034D46AA
:1004900001D5164300E096432E604D68DAF80060FF
:1004A000AD03554601D5164300E096432E604D68D6
:1004B000DBF80060ED025D4601D5164300E096438F
:1004C0002E604D68DEF80060AD02754601D516431A
:1004D00000E096432E60641C0A681646E2407FF4F2
:1004E00029AFBDE8F88F00000004014000001110A2
:1004F000001002400000014000080140000C0140D3
:10050000001001400014014000180140001C01408F
:100510000AB1016170470904FBE7000001488068E7
:1005200070470000000000200248816802781144F2
:100530008160704700000020074810B5016841F055
:1005400010010160032000F067F8002000F006F8B9
:1005500000F024F8002010BD0020024070B50D4DC1
:1005600004464FF47A712878B1FBF0F00A49096823
:10057000B1FBF0F000F0BEFA48B9102C07D200220F
:100580002146501E00F028F800206C6070BD01204C
:1005900070BD0000000000200C0000200C4808B5D1
:1005A000816941F001018161816901F001010091DE
:1005B000C16941F08051C161C06900F08050009074
:1005C0000448416821F0E06141F00071416008BDDC
:1005D0000010024000000140F0B40E4B1B680C46B6
:1005E000C3F30223C3F10705042D00D90425191D07
:1005F000072901D2002300E0DB1E012606FA05F1DF
:10060000491E214099409E40761E16403143F0BC61
:1006100000F027BB0CED00E0064900F00702086877
:100620004FF6FF03184040EA0220034A10430860D7
:10063000704700000CED00E00000FA052DE9F047DE
:100640000F46050061D0434E306800F00700B84205
:1006500009D2306820F0070038433060306800F07D
:100660000700B84251D128683B4C810712D540079A
:1006700003D5606840F4E06060602878000703D527
:10068000606840F4605060606068A96820F0F00025
:10069000084360602878C00728D06868012810D017
:1006A0002168022810D0890700292EDA616821F01C
:1006B000030101436160FFF731FF804641F2883951
:1006C0000DE021688903EFE78901EDE7FFF726FFD9
:1006D000A0EB0801494502D90320BDE8F087606816
:1006E000696800F00C00B0EB810FEFD1306800F0CA
:1006F0000700B8420BD9306820F00700384330605B
:10070000306800F00700B84201D00120E5E7287802
:10071000400705D56068E96820F4E0600843606040
:100720002878000706D56068296920F4605040EAFF
:10073000C100606000F018F86168084AC1F3031155
:10074000515CC8400649086006480068FFF706FF8C
:100750000020C2E700200240001002406A14000896
:100760000C0000200400002012A185B00FC98DE804
:100770000F0014A0144A006804905168134801F057
:100780000C03042B10D0082B0ED1C1F38343C903F3
:100790001DF803000AD5516804AAC1F34041515C19
:1007A0000A4A5043B0FBF1F005B07047084948438E
:1007B000FAE7000002030405060708090A0B0C0DFE
:1007C0000E0F1010010200000010024000127A000B
:1007D00000093D002DE9F84F040070D02078C04D8D
:1007E000C00749D06868C0F38100012807D0686855
:1007F000C0F38100022809D16868C00306D52868C3
:10080000800339D560680028E7D035E06068B0F52E
:10081000803F0BD010B1B0F5A02F11D0286820F484
:1008200080302860286820F4802002E0286840F4A6
:1008300080302860606890B1FFF770FE06460AE0DD
:10084000286840F480202860F0E700BFFFF766FECC
:10085000801B642873D828688003F7D50CE0FFF765
:100860005DFE064605E000BFFFF758FE801B6428CA
:10087000F0D828688003F7D420789A4E80074FF08C
:1008800001094FF0000839D5686810F00C0F07D047
:100890006868C0F38100022809D16868C00306D4E3
:1008A0002868800714D52069012808D110E0206944
:1008B000B0B1C6F80090FFF731FE074605E00AE147
:1008C000FFF72CFEC01B0228C4D828688007F7D584
:1008D0002868616920F0F80040EAC10028600DE056
:1008E000C6F80080FFF71AFE074604E0FFF716FE81
:1008F000C01B022823D828688007F7D42078000777
:100900002CD57948A169D9B1C0F80090FFF706FE4F
:10091000074604E0FFF702FEC01B02280FD8686AF2
:100920008007F7D571484FF4FA510068B0FBF1F039
:10093000009000BF0098411E0091FAD20EE080E0C6
:10094000C0F80080FFF7EAFD074604E0FFF7E6FD88
:10095000C01B022875D8686A8007F7D42078400742
:1009600060D5E8690027C00008D4E86940F08050ED
:10097000E861E869012700F0805000905C48016858
:10098000C90513D40168834641F480710160FFF703
:10099000C5FD824606E000BFFFF7C0FDA0EB0A00E0
:1009A00064284ED8DBF80000C005F5D5E0680128C2
:1009B0000AD008B1052813D0286A20F00100286267
:1009C000286A20F0040002E0286A40F00100286252
:1009D000E06841F2883B98B1FFF7A0FD82460BE04A
:1009E000286A40F004002862EEE700BFFFF796FD9A
:1009F000A0EB0A0159455AD8286A8007F6D50CE0C1
:100A0000FFF78CFD824605E0FFF788FDA0EB0A01A9
:100A100059454CD8286A8007F6D41FB1E86920F000
:100A20008050E861E06988B36968C1F381010229F7
:100A300044D00228C6F8608004D0FFF76FFD04465A
:100A400038E034E0FFF76AFD074604E0FFF766FD93
:100A5000C01B02282BD828688001F7D4206AB0F583
:100A6000803F05D16868A16820F4003008436860C1
:100A7000D4E908010843696821F4741108436860E7
:100A8000C6F86090FFF74AFD044606E025E000BF87
:100A9000FFF744FD001B022809D828688001F7D51C
:100AA0001BE000BFFFF73AFD001B022802D903201C
:100AB000BDE8F88F28688001F4D40EE00128F7D053
:100AC0006868226A00F48031914204D1616A00F4BE
:100AD0007010884201D00120EAE70020E8E700001A
:100AE0000010024000004242800442420C000020FC
:100AF0000070004010B5401EB0F1807F01D301208E
:100B000010BD4FF0E02460610F21601700F0A9F8DC
:100B10000020A06107202061002010BDFEE700003A
:100B200070B586B000241448009401940294039494
:100B3000816941F020018161816901F02001049106
:100B4000816941F00401816180690C4E00F004006C
:100B50004FF480750490002229463046FFF7D8FCF8
:100B600011200095CDE90104032003906946304629
:100B7000FFF7D2FB06B070BD001002400008014034
:100B8000FEE7704770477047FFF7CEBC0D4801681D
:100B900041F00101016041680B4A11404160016868
:100BA0000A4A11400160016821F480210160416816
:100BB00021F4FE0141604FF41F0181600449C0032C
:100BC00008607047001002400000FFF8FFFFF6FECB
:100BD00008ED00E0FEE730B58FB028216846FFF74A
:100BE00015FB14210AA8FFF711FB01210804CDE928
:100BF00000100024029402250491CDE907504FF41F
:100C0000E01009906846FFF7E5FD0F20CDE90A05E1
:100C10006802CDE90C4002210AA80E94FFF70EFDF0
:100C20000FB030BD70B504464068014600F054FA7C
:100C300005462068014600F04FFA294600F0CAF93F
:100C400000F056F800F09AF94FF03332034B00F001
:100C500097F8BDE8704000F061B800003333D33F2F
:100C600070470907090E002804DB00F1E02080F836
:100C70000014704700F00F0000F1E02080F8141D10
:100C8000704700001CB5FFF757FCFFF7A4FFFFF704
:100C900047FF6846FFF7E4FF1248134C134D0090DE
:100CA0004FF480760190002231462046FFF730FC59
:100CB0006846FFF7B7FF294600F00EFA00F0ECF99E
:100CC000FFF718FB012231462046FFF721FC68465A
:100CD000FFF7A8FF294600F0FFF900F0DDF9FFF764
:100CE00009FBE0E700002041000801400000484205
:100CF00070B5054600F0BCFA044620F00040C0F193
:100D0000FF40C00F08D025F00040C0F1FF40C00FE9
:100D100004BF0120FFF7A9FA204670BD21F0004270
:100D2000A2F16052B2F5801F01F0004328BFD2F15A
:100D30007F6C0BD95FEA001C43EAC20242EB5070A1
:100D400018BF704728BF20F001007047B2F5801F20
:100D5000BCBF184670474FEA410C1CF5001F02D279
:100D6000084600F080BA70B500F0B4F800000089C1
:100D7000FFF7F6BF4FF00040A0F58000704700007D
:100D8000DFF848C170B51CEA111E1EBF1CEA13151E
:100D90009EEA0C0F95EA0C0F00F06F8081EA0304C5
:100DA00023EA4C134EEAD47E21EA4C1141F480111F
:100DB00043F48013AE44A1FB024CA0FB0365AEF1EB
:100DC0007F7E361955EB0C05A1FB034C4CF100035B
:100DD000A0FB021C16EB0C06654153F1000309420F
:100DE00018BF46F0010613F4007F0BD14FEA033120
:100DF0004FEA0530340341EA155140EA16506FF0CE
:100E000003020AE04FEAC3214FEAC520F40241EA97
:100E1000555140EA56506FF0020202EB2E4201EBB0
:100E2000025585EACE710AD05FEA440C18BF24F05F
:100E3000004450F1000041F1000120EAD47040F27A
:100E4000FE7C624500D270BDA84214BF4FF08044C2
:100E50004FF04044002E08BF0024BEF1806FA8BFB1
:100E6000A1F1C041BDE8704080F282804FF00000E7
:100E700001F1C04101F0004170479EEA0C0F0CEAFD
:100E8000131518BF95EA0C0F06D04FF0000081EA49
:100E9000030E0EF0004170BD00F01CF88900013E09
:100EA00000F007B800F009B84FEA430C5FEA5C5C59
:100EB00008D081EA030100F05BB84FEA410C5FEA19
:100EC0005C5CF6D14FF00000014970470000FF075D
:100ED0000000F87F0EF1020E2EF0030E5EF8046B98
:100EE000364205D4012A43EB030515F5001F12D83D
:100EF000012841EB010C1CF5001F0CD80ED14FEA64
:100F0000D17C15F5001F0CEB4C0C0CF1020C08BF4A
:100F10004CEBD37C04E04FF0080C01E04FEAD37CAB
:100F20000CEB4C0526FA05F606F00706B6F1040CA4
:100F300006D20EEB860CBDE870404CF0010C604709
:100F4000DFE80CF0090B02024FF000414FF0000007
:100F5000A1F5002170BD19461046012851EB01048E
:100F600018BFD4F5001484BF002001F0004170BD0B
:100F70000808A0F500114FEA3101704743004FEA1D
:100F8000D30C4FEA3C0C43401FBF40070CF16051AB
:100F900013F0FE4F70471CF0006F03D100200CF0DF
:100FA000004170470CF0004343EA507010B540EA2E
:100FB000CC0000F012F900BF000000924FEA0001DF
:100FC000FFF7D6BF4FF000414FF00000A1F5002120
:100FD0007047000090EA010F48BF81F0004100F126
:100FE000D681421A3CBF801A89184FEAD0524FF07E
:100FF0007F4C1CEA410FA2EBD15318BF9CEA026F51
:1010000000F03B804FF0004C4CEA00204CEA0121FC
:1010100021FA03FC10EB0C0C1ED202F1FF325FEA46
:101020001C2040EBC25038BF70471CF07F0F4FEAC6
:10103000400C18BFBCF17F4F38BF7047C3F120038D
:10104000994008BF20F00100BCF17F4F38BF7047C6
:10105000A0F1C04000F007B94FEA3C00000A40EBA5
:10106000C25028BF1CF0FF0F4FEA400CE6D018BF5B
:10107000BCF17F4F38BF7047EAE79CEA026F05D0AA
:1010800010EA5C0F08BF00F00040704710B500F098
:10109000A4F800BF64FBBE3EC10DD1F19E0206DB89
:1010A0004FEA002343F0004323FA02F07047004266
:1010B00007D54FEA4001B1F1FE4F02D24FF00000D8
:1010C000704710B500F089F84992248000207047DD
:1010D0006FEA2000704700004FF47F0C1CEAD0122A
:1010E0001EBF1CEAD11392EA0C0F93EA0C0F00F01A
:1010F000478090EA010F48BF42F480724FF0004CE5
:101100004CEA00204CEA012102EB0302A0FB011390
:10111000A2F50002002918BF43F001035B0028BFBD
:101120004FEA330342EB22425FEA132C4CEBC250EE
:101130002EBFBCEB436FB2F57C0F70474FEA036CD8
:10114000BCF1004F08BF20F00100B2F57C0F38BFA2
:1011500070470BD582F0FF0212F5803FC8BF704781
:1011600000F1C040D8BF00F00040704700F5000C0F
:101170005FEA4C0C48BF7047B0F1C04000F073B854
:1011800090EA010F0CEAD11348BF42F48072624525
:1011900038BF634504D280EA010000F00040704788
:1011A00010B500F01AF800BF8900013E00F007B842
:1011B00000F009B85FEA410C5FEA1C6C08D080EAD5
:1011C000010000F050B85FEA400C5FEA1C6CF6D1F9
:1011D0004FF00040A0F5800070470EF1020E2EF097
:1011E000030E5EF8044B244204D44FEA4102B2F1EC
:1011F0007F4F11D84FEA4003B3F17F4F0CD80ED187
:101200004FEAD07CB2F17F4F0CEB4C0C0CF1020C8E
:1012100008BF4CEBD17C04E04FF0080C01E04FEA32
:10122000D17C0CEB4C0324FA03F404F00704B4F172
:10123000040C06D20EEB840CBDE810404CF0010CFF
:101240006047DFE80CF0070802024FF00040A0F50D
:10125000800010BD0846420018BFD2F1807288BFDE
:1012600000F0004010BDFF2141EAD050C00570479A
:101270004FEAD051002988BFD1F1FF0240F27580BA
:1012800001F17D014FEA002070B5490840F00040AF
:1012900038BF40080EA2430E040CD25C02FB02F3DE
:1012A00004FB03F3C3F14043A3FB0254ED0D45EAF5
:1012B000442202FB02F3A0FB03546D42C4F14044FC
:1012C00038BF641EA2FB05350023E2FB0453EA0B82
:1012D00042EA4342A0FB023212F14004A2F1210390
:1012E000E40903F07F031F2B32D904EBC15070BD1A
:1012F000FEFAF7F3F0ECE9E6E4E1DEDCD9D7D4D28C
:10130000D0CECCCAC8C6C4C2C1BFBDBCBAB9B7B6BC
:10131000B4B3B2B0AFAEACABAAA9A8A7A6A4A3A21F
:10132000A1A09F9E9E9D9C9B9A9998979796959415
:101330009393929190908F8E8E8D8C8C8B8A8A89CC
:101340008988878786868584848383828281818059
:1013500004FB04F6B6EB004603D5E64248BF641C26
:10136000C3E7A64258BF641CBFE711F0FF0F02D1CC
:1013700000F00040704710B5FFF72FFF7FDBFFBE86
:1013800090EA010F48BF81F000413FF52AAE421AB2
:1013900004D882F00042A0EB020011444FEAD05280
:1013A0004FF07F4C1CEA410FA2EBD15318BF9CEACF
:1013B000026F4AD04FF0004C4CEA00204CEA012169
:1013C00021FA03FCB0EB0C0C0FD412F0FE0F36D058
:1013D0005FEA4C001DD5001240EBC25038BF704789
:1013E0001CF03F0F18BF70470BE0A2F101025FEA4B
:1013F0001C2040EBC25038BF70471CF07F0F18BF55
:101400007047C3F12003994014BF401E20F0010033
:10141000704780084FEA122308BF7047B0FA80FC7B
:10142000A2EB0C02CCF1280C60FA0CF093EA122F1C
:1014300004BF00EBC25070474FEAC3707047130AF5
:101440005FEADC1008BF7047F6E79CEA026F04D041
:1014500010EA5C0F08BF0020704710B5FFF7BDFE13
:1014600040DFF63E81F000407047000000000000C1
:101470000000010203040607080900009C1400088C
:1014800000000020100000006C010008AC140008EF
:101490001000002060060000880100080100000024
:0C14A00010000000000000000024F40018
:0400000508000131BD
:00000001FF
